{
  "_format": "hh-sol-artifact-1",
  "contractName": "InitializableV2",
  "sourceName": "contracts/InitializableV2.sol",
  "abi": [
    {
      "inputs": [],
      "name": "initialize",
      "outputs": [],
      "stateMutability": "nonpayable",
      "type": "function"
    }
  ],
  "bytecode": "0x608060405234801561001057600080fd5b506101db806100206000396000f3fe608060405234801561001057600080fd5b506004361061002b5760003560e01c80638129fc1c14610030575b600080fd5b61003861003a565b005b600060019054906101000a900460ff16806100595750610058610153565b5b8061006f575060008054906101000a900460ff16155b6100c4576040517f08c379a000000000000000000000000000000000000000000000000000000000815260040180806020018281038252602e815260200180610178602e913960400191505060405180910390fd5b60008060019054906101000a900460ff161590508015610114576001600060016101000a81548160ff02191690831515021790555060016000806101000a81548160ff0219169083151502179055505b6001600060026101000a81548160ff02191690831515021790555080156101505760008060016101000a81548160ff0219169083151502179055505b50565b600061015e30610164565b15905090565b600080823b90506000811191505091905056fe496e697469616c697a61626c653a20636f6e747261637420697320616c726561647920696e697469616c697a6564a2646970667358221220ada2600bb6380d01d541edd67d70434b3cd79f5ccbc60ba3d6e555eb79cf0c5664736f6c63430007030033",
  "linkReferences": {},
  "deployedLinkReferences": {}
}