{
  "_format": "hh-sol-artifact-1",
  "contractName": "Migrations",
  "sourceName": "contracts/Migrations.sol",
  "abi": [
    {
      "inputs": [],
      "stateMutability": "nonpayable",
      "type": "constructor"
    },
    {
      "inputs": [],
      "name": "lastCompletedMigration",
      "outputs": [
        {
          "internalType": "uint256",
          "name": "",
          "type": "uint256"
        }
      ],
      "stateMutability": "view",
      "type": "function"
    },
    {
      "inputs": [],
      "name": "owner",
      "outputs": [
        {
          "internalType": "address",
          "name": "",
          "type": "address"
        }
      ],
      "stateMutability": "view",
      "type": "function"
    },
    {
      "inputs": [
        {
          "internalType": "uint256",
          "name": "_completed",
          "type": "uint256"
        }
      ],
      "name": "setCompleted",
      "outputs": [],
      "stateMutability": "nonpayable",
      "type": "function"
    },
    {
      "inputs": [
        {
          "internalType": "address",
          "name": "_newAddress",
          "type": "address"
        }
      ],
      "name": "upgrade",
      "outputs": [],
      "stateMutability": "nonpayable",
      "type": "function"
    }
  ],
  "bytecode": "0x608060405234801561001057600080fd5b50336000806101000a81548173ffffffffffffffffffffffffffffffffffffffff021916908373ffffffffffffffffffffffffffffffffffffffff16021790555061029f806100606000396000f3fe608060405234801561001057600080fd5b506004361061004c5760003560e01c80630900f010146100515780638da5cb5b14610095578063fbdbad3c146100c9578063fdacd576146100e7575b600080fd5b6100936004803603602081101561006757600080fd5b81019080803573ffffffffffffffffffffffffffffffffffffffff169060200190929190505050610115565b005b61009d6101e0565b604051808273ffffffffffffffffffffffffffffffffffffffff16815260200191505060405180910390f35b6100d1610204565b6040518082815260200191505060405180910390f35b610113600480360360208110156100fd57600080fd5b810190808035906020019092919050505061020a565b005b60008054906101000a900473ffffffffffffffffffffffffffffffffffffffff1673ffffffffffffffffffffffffffffffffffffffff163373ffffffffffffffffffffffffffffffffffffffff1614156101dd5760008190508073ffffffffffffffffffffffffffffffffffffffff1663fdacd5766001546040518263ffffffff1660e01b815260040180828152602001915050600060405180830381600087803b1580156101c357600080fd5b505af11580156101d7573d6000803e3d6000fd5b50505050505b50565b60008054906101000a900473ffffffffffffffffffffffffffffffffffffffff1681565b60015481565b60008054906101000a900473ffffffffffffffffffffffffffffffffffffffff1673ffffffffffffffffffffffffffffffffffffffff163373ffffffffffffffffffffffffffffffffffffffff16141561026657806001819055505b5056fea2646970667358221220925b4b0219ba98ed4c5ebb5d11912680bac202a1c92f818750af2982a9e1ca7d64736f6c63430007030033",
  "linkReferences": {},
  "deployedLinkReferences": {}
}