{
  "_format": "hh-sol-artifact-1",
  "contractName": "SuperRareTokenMerkleDrop",
  "sourceName": "contracts/claim/SuperRareTokenMerkleDrop.sol",
  "abi": [
    {
      "inputs": [
        {
          "internalType": "address",
          "name": "superRareToken",
          "type": "address"
        },
        {
          "internalType": "bytes32",
          "name": "merkleRoot",
          "type": "bytes32"
        }
      ],
      "stateMutability": "nonpayable",
      "type": "constructor"
    },
    {
      "anonymous": false,
      "inputs": [
        {
          "indexed": true,
          "internalType": "address",
          "name": "previousOwner",
          "type": "address"
        },
        {
          "indexed": true,
          "internalType": "address",
          "name": "newOwner",
          "type": "address"
        }
      ],
      "name": "OwnershipTransferred",
      "type": "event"
    },
    {
      "anonymous": false,
      "inputs": [
        {
          "indexed": true,
          "internalType": "bytes32",
          "name": "root",
          "type": "bytes32"
        },
        {
          "indexed": true,
          "internalType": "address",
          "name": "addr",
          "type": "address"
        },
        {
          "indexed": false,
          "internalType": "uint256",
          "name": "amt",
          "type": "uint256"
        }
      ],
      "name": "TokensClaimed",
      "type": "event"
    },
    {
      "inputs": [
        {
          "internalType": "uint256",
          "name": "amount",
          "type": "uint256"
        },
        {
          "internalType": "bytes32[]",
          "name": "proof",
          "type": "bytes32[]"
        }
      ],
      "name": "claim",
      "outputs": [],
      "stateMutability": "nonpayable",
      "type": "function"
    },
    {
      "inputs": [],
      "name": "claimRoot",
      "outputs": [
        {
          "internalType": "bytes32",
          "name": "",
          "type": "bytes32"
        }
      ],
      "stateMutability": "view",
      "type": "function"
    },
    {
      "inputs": [],
      "name": "owner",
      "outputs": [
        {
          "internalType": "address",
          "name": "",
          "type": "address"
        }
      ],
      "stateMutability": "view",
      "type": "function"
    },
    {
      "inputs": [],
      "name": "renounceOwnership",
      "outputs": [],
      "stateMutability": "nonpayable",
      "type": "function"
    },
    {
      "inputs": [
        {
          "internalType": "address",
          "name": "",
          "type": "address"
        }
      ],
      "name": "rewardClaimed",
      "outputs": [
        {
          "internalType": "bool",
          "name": "",
          "type": "bool"
        }
      ],
      "stateMutability": "view",
      "type": "function"
    },
    {
      "inputs": [],
      "name": "token",
      "outputs": [
        {
          "internalType": "contract IERC20Upgradeable",
          "name": "",
          "type": "address"
        }
      ],
      "stateMutability": "view",
      "type": "function"
    },
    {
      "inputs": [
        {
          "internalType": "address",
          "name": "newOwner",
          "type": "address"
        }
      ],
      "name": "transferOwnership",
      "outputs": [],
      "stateMutability": "nonpayable",
      "type": "function"
    },
    {
      "inputs": [
        {
          "internalType": "bytes32",
          "name": "newRoot",
          "type": "bytes32"
        }
      ],
      "name": "updateMerkleRoot",
      "outputs": [],
      "stateMutability": "nonpayable",
      "type": "function"
    },
    {
      "inputs": [
        {
          "internalType": "address",
          "name": "_token",
          "type": "address"
        }
      ],
      "name": "updateTokenAddress",
      "outputs": [],
      "stateMutability": "nonpayable",
      "type": "function"
    },
    {
      "inputs": [
        {
          "internalType": "address",
          "name": "recipient",
          "type": "address"
        },
        {
          "internalType": "uint256",
          "name": "value",
          "type": "uint256"
        },
        {
          "internalType": "bytes32[]",
          "name": "proof",
          "type": "bytes32[]"
        }
      ],
      "name": "verifyEntitled",
      "outputs": [
        {
          "internalType": "bool",
          "name": "",
          "type": "bool"
        }
      ],
      "stateMutability": "view",
      "type": "function"
    }
  ],
  "bytecode": "0x60806040523480156200001157600080fd5b506040516200150638038062001506833981810160405260408110156200003757600080fd5b810190808051906020019092919080519060200190929190505050600073ffffffffffffffffffffffffffffffffffffffff168273ffffffffffffffffffffffffffffffffffffffff161415620000f6576040517f08c379a00000000000000000000000000000000000000000000000000000000081526004018080602001828103825260208152602001807f546f6b656e20616464726573732063616e74206265203020616464726573732e81525060200191505060405180910390fd5b6000801b81141562000170576040517f08c379a00000000000000000000000000000000000000000000000000000000081526004018080602001828103825260198152602001807f4d65726b6c65526f6f742063616e7420626520656d7074792e0000000000000081525060200191505060405180910390fd5b62000180620001d060201b60201c565b81606660006101000a81548173ffffffffffffffffffffffffffffffffffffffff021916908373ffffffffffffffffffffffffffffffffffffffff160217905550806065819055505050620005fe565b600060019054906101000a900460ff1680620001f85750620001f7620002fc60201b60201c565b5b806200020f575060008054906101000a900460ff16155b62000266576040517f08c379a000000000000000000000000000000000000000000000000000000000815260040180806020018281038252602e815260200180620014d8602e913960400191505060405180910390fd5b60008060019054906101000a900460ff161590508015620002b7576001600060016101000a81548160ff02191690831515021790555060016000806101000a81548160ff0219169083151502179055505b620002c76200031a60201b60201c565b620002d76200042660201b60201c565b8015620002f95760008060016101000a81548160ff0219169083151502179055505b50565b60006200031430620005e360201b62000d351760201c565b15905090565b600060019054906101000a900460ff168062000342575062000341620002fc60201b60201c565b5b8062000359575060008054906101000a900460ff16155b620003b0576040517f08c379a000000000000000000000000000000000000000000000000000000000815260040180806020018281038252602e815260200180620014d8602e913960400191505060405180910390fd5b60008060019054906101000a900460ff16159050801562000401576001600060016101000a81548160ff02191690831515021790555060016000806101000a81548160ff0219169083151502179055505b8015620004235760008060016101000a81548160ff0219169083151502179055505b50565b600060019054906101000a900460ff16806200044e57506200044d620002fc60201b60201c565b5b8062000465575060008054906101000a900460ff16155b620004bc576040517f08c379a000000000000000000000000000000000000000000000000000000000815260040180806020018281038252602e815260200180620014d8602e913960400191505060405180910390fd5b60008060019054906101000a900460ff1615905080156200050d576001600060016101000a81548160ff02191690831515021790555060016000806101000a81548160ff0219169083151502179055505b60006200051f620005f660201b60201c565b905080603360006101000a81548173ffffffffffffffffffffffffffffffffffffffff021916908373ffffffffffffffffffffffffffffffffffffffff1602179055508073ffffffffffffffffffffffffffffffffffffffff16600073ffffffffffffffffffffffffffffffffffffffff167f8be0079c531659141344cd1fd0a4f28419497f9722a3daafe3b4186f6b6457e060405160405180910390a3508015620005e05760008060016101000a81548160ff0219169083151502179055505b50565b600080823b905060008111915050919050565b600033905090565b610eca806200060e6000396000f3fe608060405234801561001057600080fd5b506004361061009e5760003560e01c8063715018a611610066578063715018a6146102105780638da5cb5b1461021a578063c3709caf1461024e578063f2fde38b14610346578063fc0c546a1461038a5761009e565b806314ea35e7146100a357806329e19704146100c15780632f52ebb71461011b5780634783f0ef1461019e5780636691461a146101cc575b600080fd5b6100ab6103be565b6040518082815260200191505060405180910390f35b610103600480360360208110156100d757600080fd5b81019080803573ffffffffffffffffffffffffffffffffffffffff1690602001909291905050506103c4565b60405180821515815260200191505060405180910390f35b61019c6004803603604081101561013157600080fd5b81019080803590602001909291908035906020019064010000000081111561015857600080fd5b82018360208201111561016a57600080fd5b8035906020019184602083028401116401000000008311171561018c57600080fd5b90919293919293905050506103e4565b005b6101ca600480360360208110156101b457600080fd5b81019080803590602001909291905050506106ed565b005b61020e600480360360208110156101e257600080fd5b81019080803573ffffffffffffffffffffffffffffffffffffffff1690602001909291905050506107a6565b005b61021861091f565b005b610222610a8f565b604051808273ffffffffffffffffffffffffffffffffffffffff16815260200191505060405180910390f35b61032e6004803603606081101561026457600080fd5b81019080803573ffffffffffffffffffffffffffffffffffffffff16906020019092919080359060200190929190803590602001906401000000008111156102ab57600080fd5b8201836020820111156102bd57600080fd5b803590602001918460208302840111640100000000831117156102df57600080fd5b919080806020026020016040519081016040528093929190818152602001838360200280828437600081840152601f19601f820116905080830192505050505050509192919290505050610ab9565b60405180821515815260200191505060405180910390f35b6103886004803603602081101561035c57600080fd5b81019080803573ffffffffffffffffffffffffffffffffffffffff169060200190929190505050610b1a565b005b610392610d0f565b604051808273ffffffffffffffffffffffffffffffffffffffff16815260200191505060405180910390f35b60655481565b60676020528060005260406000206000915054906101000a900460ff1681565b6104376103ef610d48565b84848480806020026020016040519081016040528093929190818152602001838360200280828437600081840152601f19601f82011690508083019250505050505050610ab9565b6104a9576040517f08c379a00000000000000000000000000000000000000000000000000000000081526004018080602001828103825260208152602001807f5468652070726f6f6620636f756c64206e6f742062652076657269666965642e81525060200191505060405180910390fd5b606760006104b5610d48565b73ffffffffffffffffffffffffffffffffffffffff1673ffffffffffffffffffffffffffffffffffffffff16815260200190815260200160002060009054906101000a900460ff1615610553576040517f08c379a000000000000000000000000000000000000000000000000000000000815260040180806020018281038252602f815260200180610e3a602f913960400191505060405180910390fd5b600160676000610561610d48565b73ffffffffffffffffffffffffffffffffffffffff1673ffffffffffffffffffffffffffffffffffffffff16815260200190815260200160002060006101000a81548160ff021916908315150217905550606660009054906101000a900473ffffffffffffffffffffffffffffffffffffffff1673ffffffffffffffffffffffffffffffffffffffff1663a9059cbb6105f8610d48565b856040518363ffffffff1660e01b8152600401808373ffffffffffffffffffffffffffffffffffffffff16815260200182815260200192505050602060405180830381600087803b15801561064c57600080fd5b505af1158015610660573d6000803e3d6000fd5b505050506040513d602081101561067657600080fd5b810190808051906020019092919050505061069057600080fd5b610698610d48565b73ffffffffffffffffffffffffffffffffffffffff166065547fb6a3782a350d2b8520b7fe13e8e97b61f22902243ad29c4c3a9a8f714935718c856040518082815260200191505060405180910390a3505050565b6106f5610d48565b73ffffffffffffffffffffffffffffffffffffffff16610713610a8f565b73ffffffffffffffffffffffffffffffffffffffff161461079c576040517f08c379a00000000000000000000000000000000000000000000000000000000081526004018080602001828103825260208152602001807f4f776e61626c653a2063616c6c6572206973206e6f7420746865206f776e657281525060200191505060405180910390fd5b8060658190555050565b6107ae610d48565b73ffffffffffffffffffffffffffffffffffffffff166107cc610a8f565b73ffffffffffffffffffffffffffffffffffffffff1614610855576040517f08c379a00000000000000000000000000000000000000000000000000000000081526004018080602001828103825260208152602001807f4f776e61626c653a2063616c6c6572206973206e6f7420746865206f776e657281525060200191505060405180910390fd5b600073ffffffffffffffffffffffffffffffffffffffff168173ffffffffffffffffffffffffffffffffffffffff1614156108db576040517f08c379a000000000000000000000000000000000000000000000000000000000815260040180806020018281038252602c815260200180610e69602c913960400191505060405180910390fd5b80606660006101000a81548173ffffffffffffffffffffffffffffffffffffffff021916908373ffffffffffffffffffffffffffffffffffffffff16021790555050565b610927610d48565b73ffffffffffffffffffffffffffffffffffffffff16610945610a8f565b73ffffffffffffffffffffffffffffffffffffffff16146109ce576040517f08c379a00000000000000000000000000000000000000000000000000000000081526004018080602001828103825260208152602001807f4f776e61626c653a2063616c6c6572206973206e6f7420746865206f776e657281525060200191505060405180910390fd5b600073ffffffffffffffffffffffffffffffffffffffff16603360009054906101000a900473ffffffffffffffffffffffffffffffffffffffff1673ffffffffffffffffffffffffffffffffffffffff167f8be0079c531659141344cd1fd0a4f28419497f9722a3daafe3b4186f6b6457e060405160405180910390a36000603360006101000a81548173ffffffffffffffffffffffffffffffffffffffff021916908373ffffffffffffffffffffffffffffffffffffffff160217905550565b6000603360009054906101000a900473ffffffffffffffffffffffffffffffffffffffff16905090565b6000808484604051602001808373ffffffffffffffffffffffffffffffffffffffff1660601b815260140182815260200192505050604051602081830303815290604052805190602001209050610b108184610d50565b9150509392505050565b610b22610d48565b73ffffffffffffffffffffffffffffffffffffffff16610b40610a8f565b73ffffffffffffffffffffffffffffffffffffffff1614610bc9576040517f08c379a00000000000000000000000000000000000000000000000000000000081526004018080602001828103825260208152602001807f4f776e61626c653a2063616c6c6572206973206e6f7420746865206f776e657281525060200191505060405180910390fd5b600073ffffffffffffffffffffffffffffffffffffffff168173ffffffffffffffffffffffffffffffffffffffff161415610c4f576040517f08c379a0000000000000000000000000000000000000000000000000000000008152600401808060200182810382526026815260200180610e146026913960400191505060405180910390fd5b8073ffffffffffffffffffffffffffffffffffffffff16603360009054906101000a900473ffffffffffffffffffffffffffffffffffffffff1673ffffffffffffffffffffffffffffffffffffffff167f8be0079c531659141344cd1fd0a4f28419497f9722a3daafe3b4186f6b6457e060405160405180910390a380603360006101000a81548173ffffffffffffffffffffffffffffffffffffffff021916908373ffffffffffffffffffffffffffffffffffffffff16021790555050565b606660009054906101000a900473ffffffffffffffffffffffffffffffffffffffff1681565b600080823b905060008111915050919050565b600033905090565b60008083905060005b8351811015610d8e57610d7f82858381518110610d7257fe5b6020026020010151610d9d565b91508080600101915050610d59565b50606554811491505092915050565b600081831115610ddb578183604051602001808381526020018281526020019250505060405160208183030381529060405280519060200120610e0b565b82826040516020018083815260200182815260200192505050604051602081830303815290604052805190602001205b90509291505056fe4f776e61626c653a206e6577206f776e657220697320746865207a65726f2061646472657373596f75206861766520616c72656164792077697468647261776e20796f757220656e7469746c656420746f6b656e2e4e657720746f6b656e20616464726573732063616e6e6f7420626520746865207a65726f2061646472657373a2646970667358221220f597ac5aee9896f5749ff3b4bf11d3dc43429342b8880a0ee7b755ac8882e10464736f6c63430007030033496e697469616c697a61626c653a20636f6e747261637420697320616c726561647920696e697469616c697a6564",
  "linkReferences": {},
  "deployedLinkReferences": {}
}