{
  "_format": "hh-sol-artifact-1",
  "contractName": "SuperRareTokenMerkleDrop",
  "sourceName": "contracts/claim/SuperRareTokenMerkleDrop.sol",
  "abi": [
    {
      "inputs": [
        {
          "internalType": "address",
          "name": "superRareToken",
          "type": "address"
        },
        {
          "internalType": "bytes32",
          "name": "merkleRoot",
          "type": "bytes32"
        }
      ],
      "stateMutability": "nonpayable",
      "type": "constructor"
    },
    {
      "anonymous": false,
      "inputs": [
        {
          "indexed": true,
          "internalType": "bytes32",
          "name": "root",
          "type": "bytes32"
        },
        {
          "indexed": true,
          "internalType": "address",
          "name": "addr",
          "type": "address"
        },
        {
          "indexed": false,
          "internalType": "uint256",
          "name": "amt",
          "type": "uint256"
        }
      ],
      "name": "TokensClaimed",
      "type": "event"
    },
    {
      "inputs": [
        {
          "internalType": "uint256",
          "name": "amount",
          "type": "uint256"
        },
        {
          "internalType": "bytes32[]",
          "name": "proof",
          "type": "bytes32[]"
        }
      ],
      "name": "claim",
      "outputs": [],
      "stateMutability": "nonpayable",
      "type": "function"
    },
    {
      "inputs": [],
      "name": "claimRoot",
      "outputs": [
        {
          "internalType": "bytes32",
          "name": "",
          "type": "bytes32"
        }
      ],
      "stateMutability": "view",
      "type": "function"
    },
    {
      "inputs": [
        {
          "internalType": "address",
          "name": "",
          "type": "address"
        }
      ],
      "name": "rewardClaimed",
      "outputs": [
        {
          "internalType": "bool",
          "name": "",
          "type": "bool"
        }
      ],
      "stateMutability": "view",
      "type": "function"
    },
    {
      "inputs": [],
      "name": "token",
      "outputs": [
        {
          "internalType": "contract IERC20Upgradeable",
          "name": "",
          "type": "address"
        }
      ],
      "stateMutability": "view",
      "type": "function"
    },
    {
      "inputs": [
        {
          "internalType": "address",
          "name": "_owner",
          "type": "address"
        }
      ],
      "name": "transferOwnership",
      "outputs": [],
      "stateMutability": "nonpayable",
      "type": "function"
    },
    {
      "inputs": [
        {
          "internalType": "bytes32",
          "name": "newRoot",
          "type": "bytes32"
        }
      ],
      "name": "updateMerkleRoot",
      "outputs": [],
      "stateMutability": "nonpayable",
      "type": "function"
    },
    {
      "inputs": [
        {
          "internalType": "address",
          "name": "_token",
          "type": "address"
        }
      ],
      "name": "updateTokenAddress",
      "outputs": [],
      "stateMutability": "nonpayable",
      "type": "function"
    },
    {
      "inputs": [
        {
          "internalType": "address",
          "name": "recipient",
          "type": "address"
        },
        {
          "internalType": "uint256",
          "name": "value",
          "type": "uint256"
        },
        {
          "internalType": "bytes32[]",
          "name": "proof",
          "type": "bytes32[]"
        }
      ],
      "name": "verifyEntitled",
      "outputs": [
        {
          "internalType": "bool",
          "name": "",
          "type": "bool"
        }
      ],
      "stateMutability": "view",
      "type": "function"
    }
  ],
  "bytecode": "0x608060405234801561001057600080fd5b50604051610ec2380380610ec28339818101604052604081101561003357600080fd5b810190808051906020019092919080519060200190929190505050600073ffffffffffffffffffffffffffffffffffffffff168273ffffffffffffffffffffffffffffffffffffffff1614156100f1576040517f08c379a00000000000000000000000000000000000000000000000000000000081526004018080602001828103825260208152602001807f546f6b656e20616464726573732063616e74206265203020616464726573732e81525060200191505060405180910390fd5b6000801b81141561016a576040517f08c379a00000000000000000000000000000000000000000000000000000000081526004018080602001828103825260198152602001807f4d65726b6c65526f6f742063616e7420626520656d7074792e0000000000000081525060200191505060405180910390fd5b61017861020760201b60201c565b603360006101000a81548173ffffffffffffffffffffffffffffffffffffffff021916908373ffffffffffffffffffffffffffffffffffffffff16021790555081603560006101000a81548173ffffffffffffffffffffffffffffffffffffffff021916908373ffffffffffffffffffffffffffffffffffffffff16021790555080603481905550505061020f565b600033905090565b610ca48061021e6000396000f3fe608060405234801561001057600080fd5b50600436106100885760003560e01c80636691461a1161005b5780636691461a146101b6578063c3709caf146101fa578063f2fde38b146102f2578063fc0c546a1461033657610088565b806314ea35e71461008d57806329e19704146100ab5780632f52ebb7146101055780634783f0ef14610188575b600080fd5b61009561036a565b6040518082815260200191505060405180910390f35b6100ed600480360360208110156100c157600080fd5b81019080803573ffffffffffffffffffffffffffffffffffffffff169060200190929190505050610370565b60405180821515815260200191505060405180910390f35b6101866004803603604081101561011b57600080fd5b81019080803590602001909291908035906020019064010000000081111561014257600080fd5b82018360208201111561015457600080fd5b8035906020019184602083028401116401000000008311171561017657600080fd5b9091929391929390505050610390565b005b6101b46004803603602081101561019e57600080fd5b8101908080359060200190929190505050610699565b005b6101f8600480360360208110156101cc57600080fd5b81019080803573ffffffffffffffffffffffffffffffffffffffff16906020019092919050505061076d565b005b6102da6004803603606081101561021057600080fd5b81019080803573ffffffffffffffffffffffffffffffffffffffff169060200190929190803590602001909291908035906020019064010000000081111561025757600080fd5b82018360208201111561026957600080fd5b8035906020019184602083028401116401000000008311171561028b57600080fd5b919080806020026020016040519081016040528093929190818152602001838360200280828437600081840152601f19601f820116905080830192505050505050509192919290505050610901565b60405180821515815260200191505060405180910390f35b6103346004803603602081101561030857600080fd5b81019080803573ffffffffffffffffffffffffffffffffffffffff169060200190929190505050610962565b005b61033e610af6565b604051808273ffffffffffffffffffffffffffffffffffffffff16815260200191505060405180910390f35b60345481565b60366020528060005260406000206000915054906101000a900460ff1681565b6103e361039b610b1c565b84848480806020026020016040519081016040528093929190818152602001838360200280828437600081840152601f19601f82011690508083019250505050505050610901565b610455576040517f08c379a00000000000000000000000000000000000000000000000000000000081526004018080602001828103825260208152602001807f5468652070726f6f6620636f756c64206e6f742062652076657269666965642e81525060200191505060405180910390fd5b60366000610461610b1c565b73ffffffffffffffffffffffffffffffffffffffff1673ffffffffffffffffffffffffffffffffffffffff16815260200190815260200160002060009054906101000a900460ff16156104ff576040517f08c379a000000000000000000000000000000000000000000000000000000000815260040180806020018281038252602f815260200180610be8602f913960400191505060405180910390fd5b60016036600061050d610b1c565b73ffffffffffffffffffffffffffffffffffffffff1673ffffffffffffffffffffffffffffffffffffffff16815260200190815260200160002060006101000a81548160ff021916908315150217905550603560009054906101000a900473ffffffffffffffffffffffffffffffffffffffff1673ffffffffffffffffffffffffffffffffffffffff1663a9059cbb6105a4610b1c565b856040518363ffffffff1660e01b8152600401808373ffffffffffffffffffffffffffffffffffffffff16815260200182815260200192505050602060405180830381600087803b1580156105f857600080fd5b505af115801561060c573d6000803e3d6000fd5b505050506040513d602081101561062257600080fd5b810190808051906020019092919050505061063c57600080fd5b610644610b1c565b73ffffffffffffffffffffffffffffffffffffffff166034547fb6a3782a350d2b8520b7fe13e8e97b61f22902243ad29c4c3a9a8f714935718c856040518082815260200191505060405180910390a3505050565b603360009054906101000a900473ffffffffffffffffffffffffffffffffffffffff1673ffffffffffffffffffffffffffffffffffffffff166106da610b1c565b73ffffffffffffffffffffffffffffffffffffffff1614610763576040517f08c379a000000000000000000000000000000000000000000000000000000000815260040180806020018281038252601e8152602001807f4d757374206265206f776e6572206f662074686520636f6e74726163742e000081525060200191505060405180910390fd5b8060348190555050565b603360009054906101000a900473ffffffffffffffffffffffffffffffffffffffff1673ffffffffffffffffffffffffffffffffffffffff166107ae610b1c565b73ffffffffffffffffffffffffffffffffffffffff1614610837576040517f08c379a000000000000000000000000000000000000000000000000000000000815260040180806020018281038252601e8152602001807f4d757374206265206f776e6572206f662074686520636f6e74726163742e000081525060200191505060405180910390fd5b600073ffffffffffffffffffffffffffffffffffffffff168173ffffffffffffffffffffffffffffffffffffffff1614156108bd576040517f08c379a000000000000000000000000000000000000000000000000000000000815260040180806020018281038252602c815260200180610c17602c913960400191505060405180910390fd5b80603560006101000a81548173ffffffffffffffffffffffffffffffffffffffff021916908373ffffffffffffffffffffffffffffffffffffffff16021790555050565b6000808484604051602001808373ffffffffffffffffffffffffffffffffffffffff1660601b8152601401828152602001925050506040516020818303038152906040528051906020012090506109588184610b24565b9150509392505050565b603360009054906101000a900473ffffffffffffffffffffffffffffffffffffffff1673ffffffffffffffffffffffffffffffffffffffff166109a3610b1c565b73ffffffffffffffffffffffffffffffffffffffff1614610a2c576040517f08c379a000000000000000000000000000000000000000000000000000000000815260040180806020018281038252601e8152602001807f4d757374206265206f776e6572206f662074686520636f6e74726163742e000081525060200191505060405180910390fd5b600073ffffffffffffffffffffffffffffffffffffffff168173ffffffffffffffffffffffffffffffffffffffff161415610ab2576040517f08c379a000000000000000000000000000000000000000000000000000000000815260040180806020018281038252602c815260200180610c43602c913960400191505060405180910390fd5b80603360006101000a81548173ffffffffffffffffffffffffffffffffffffffff021916908373ffffffffffffffffffffffffffffffffffffffff16021790555050565b603560009054906101000a900473ffffffffffffffffffffffffffffffffffffffff1681565b600033905090565b60008083905060005b8351811015610b6257610b5382858381518110610b4657fe5b6020026020010151610b71565b91508080600101915050610b2d565b50603454811491505092915050565b600081831115610baf578183604051602001808381526020018281526020019250505060405160208183030381529060405280519060200120610bdf565b82826040516020018083815260200182815260200192505050604051602081830303815290604052805190602001205b90509291505056fe596f75206861766520616c72656164792077697468647261776e20796f757220656e7469746c656420746f6b656e2e4e657720746f6b656e20616464726573732063616e6e6f7420626520746865207a65726f20616464726573734e6577206f776e657220616464726573732063616e6e6f7420626520746865207a65726f2061646472657373a26469706673582212201b2c189e5a3d2f5306b382a6c974d8303670040fa80be07fd45f6e882a02183164736f6c63430007030033",
  "linkReferences": {},
  "deployedLinkReferences": {}
}