{
  "_format": "hh-sol-artifact-1",
  "contractName": "SuperRareStaking",
  "sourceName": "contracts/staking/SuperRareStaking.sol",
  "abi": [
    {
      "anonymous": false,
      "inputs": [
        {
          "indexed": true,
          "internalType": "address",
          "name": "previousOwner",
          "type": "address"
        },
        {
          "indexed": true,
          "internalType": "address",
          "name": "newOwner",
          "type": "address"
        }
      ],
      "name": "OwnershipTransferred",
      "type": "event"
    },
    {
      "anonymous": false,
      "inputs": [
        {
          "indexed": false,
          "internalType": "address",
          "name": "account",
          "type": "address"
        }
      ],
      "name": "Paused",
      "type": "event"
    },
    {
      "anonymous": false,
      "inputs": [
        {
          "indexed": true,
          "internalType": "address",
          "name": "user",
          "type": "address"
        },
        {
          "indexed": false,
          "internalType": "uint256",
          "name": "index",
          "type": "uint256"
        },
        {
          "indexed": false,
          "internalType": "uint256",
          "name": "amount",
          "type": "uint256"
        },
        {
          "indexed": true,
          "internalType": "uint256",
          "name": "length",
          "type": "uint256"
        }
      ],
      "name": "Staked",
      "type": "event"
    },
    {
      "anonymous": false,
      "inputs": [
        {
          "indexed": false,
          "internalType": "address",
          "name": "account",
          "type": "address"
        }
      ],
      "name": "Unpaused",
      "type": "event"
    },
    {
      "anonymous": false,
      "inputs": [
        {
          "indexed": true,
          "internalType": "address",
          "name": "user",
          "type": "address"
        },
        {
          "indexed": false,
          "internalType": "uint256",
          "name": "index",
          "type": "uint256"
        },
        {
          "indexed": false,
          "internalType": "uint256",
          "name": "amount",
          "type": "uint256"
        },
        {
          "indexed": true,
          "internalType": "uint256",
          "name": "length",
          "type": "uint256"
        }
      ],
      "name": "Unstaked",
      "type": "event"
    },
    {
      "inputs": [],
      "name": "getPoolAddress",
      "outputs": [
        {
          "internalType": "address",
          "name": "",
          "type": "address"
        }
      ],
      "stateMutability": "view",
      "type": "function"
    },
    {
      "inputs": [],
      "name": "getTotalStaked",
      "outputs": [
        {
          "internalType": "uint256",
          "name": "",
          "type": "uint256"
        }
      ],
      "stateMutability": "view",
      "type": "function"
    },
    {
      "inputs": [
        {
          "internalType": "address",
          "name": "staker",
          "type": "address"
        }
      ],
      "name": "getTotalStakedByAddress",
      "outputs": [
        {
          "internalType": "uint256",
          "name": "",
          "type": "uint256"
        }
      ],
      "stateMutability": "view",
      "type": "function"
    },
    {
      "inputs": [
        {
          "internalType": "address",
          "name": "_tokenAddress",
          "type": "address"
        },
        {
          "internalType": "address",
          "name": "_poolAddress",
          "type": "address"
        },
        {
          "internalType": "uint256[]",
          "name": "_durations",
          "type": "uint256[]"
        },
        {
          "internalType": "uint256[]",
          "name": "_rates",
          "type": "uint256[]"
        }
      ],
      "name": "initialize",
      "outputs": [],
      "stateMutability": "nonpayable",
      "type": "function"
    },
    {
      "inputs": [],
      "name": "owner",
      "outputs": [
        {
          "internalType": "address",
          "name": "",
          "type": "address"
        }
      ],
      "stateMutability": "view",
      "type": "function"
    },
    {
      "inputs": [],
      "name": "paused",
      "outputs": [
        {
          "internalType": "bool",
          "name": "",
          "type": "bool"
        }
      ],
      "stateMutability": "view",
      "type": "function"
    },
    {
      "inputs": [],
      "name": "renounceOwnership",
      "outputs": [],
      "stateMutability": "nonpayable",
      "type": "function"
    },
    {
      "inputs": [
        {
          "internalType": "uint256",
          "name": "",
          "type": "uint256"
        }
      ],
      "name": "rewardRatios",
      "outputs": [
        {
          "internalType": "uint256",
          "name": "",
          "type": "uint256"
        }
      ],
      "stateMutability": "view",
      "type": "function"
    },
    {
      "inputs": [
        {
          "internalType": "bool",
          "name": "_paused",
          "type": "bool"
        }
      ],
      "name": "setPaused",
      "outputs": [],
      "stateMutability": "nonpayable",
      "type": "function"
    },
    {
      "inputs": [
        {
          "internalType": "address",
          "name": "_poolAddress",
          "type": "address"
        }
      ],
      "name": "setPoolAddress",
      "outputs": [],
      "stateMutability": "nonpayable",
      "type": "function"
    },
    {
      "inputs": [
        {
          "internalType": "uint256",
          "name": "amount",
          "type": "uint256"
        },
        {
          "internalType": "uint256",
          "name": "length",
          "type": "uint256"
        }
      ],
      "name": "stake",
      "outputs": [],
      "stateMutability": "nonpayable",
      "type": "function"
    },
    {
      "inputs": [],
      "name": "token",
      "outputs": [
        {
          "internalType": "address",
          "name": "",
          "type": "address"
        }
      ],
      "stateMutability": "view",
      "type": "function"
    },
    {
      "inputs": [
        {
          "internalType": "address",
          "name": "newOwner",
          "type": "address"
        }
      ],
      "name": "transferOwnership",
      "outputs": [],
      "stateMutability": "nonpayable",
      "type": "function"
    },
    {
      "inputs": [
        {
          "internalType": "uint256",
          "name": "index",
          "type": "uint256"
        }
      ],
      "name": "unstake",
      "outputs": [],
      "stateMutability": "nonpayable",
      "type": "function"
    },
    {
      "inputs": [
        {
          "internalType": "uint256",
          "name": "length",
          "type": "uint256"
        },
        {
          "internalType": "uint256",
          "name": "rate",
          "type": "uint256"
        }
      ],
      "name": "updateRewardRatio",
      "outputs": [],
      "stateMutability": "nonpayable",
      "type": "function"
    }
  ],
  "bytecode": "0x608060405234801561001057600080fd5b506128f6806100206000396000f3fe608060405234801561001057600080fd5b50600436106100f55760003560e01c8063715018a611610097578063e9e15b4f11610066578063e9e15b4f1461046a578063f2fde38b146104ae578063f586c6d9146104f2578063fc0c546a14610526576100f5565b8063715018a61461039c5780637b0472f0146103a65780638da5cb5b146103de578063d622888c14610412576100f5565b806327e70364116100d357806327e703641461018a5780632e17de7814610316578063340ade8c146103445780635c975abb1461037c576100f5565b80630917e776146100fa5780630e24338c1461011857806316c38b3c1461015a575b600080fd5b61010261055a565b6040518082815260200191505060405180910390f35b6101446004803603602081101561012e57600080fd5b8101908080359060200190929190505050610564565b6040518082815260200191505060405180910390f35b6101886004803603602081101561017057600080fd5b8101908080351515906020019092919050505061057c565b005b610314600480360360808110156101a057600080fd5b81019080803573ffffffffffffffffffffffffffffffffffffffff169060200190929190803573ffffffffffffffffffffffffffffffffffffffff169060200190929190803590602001906401000000008111156101fd57600080fd5b82018360208201111561020f57600080fd5b8035906020019184602083028401116401000000008311171561023157600080fd5b919080806020026020016040519081016040528093929190818152602001838360200280828437600081840152601f19601f8201169050808301925050505050505091929192908035906020019064010000000081111561029157600080fd5b8201836020820111156102a357600080fd5b803590602001918460208302840111640100000000831117156102c557600080fd5b919080806020026020016040519081016040528093929190818152602001838360200280828437600081840152601f19601f820116905080830192505050505050509192919290505050610663565b005b6103426004803603602081101561032c57600080fd5b8101908080359060200190929190505050610a3a565b005b61037a6004803603604081101561035a57600080fd5b810190808035906020019092919080359060200190929190505050610fd4565b005b61038461109f565b60405180821515815260200191505060405180910390f35b6103a46110b6565b005b6103dc600480360360408110156103bc57600080fd5b810190808035906020019092919080359060200190929190505050611226565b005b6103e661191e565b604051808273ffffffffffffffffffffffffffffffffffffffff16815260200191505060405180910390f35b6104546004803603602081101561042857600080fd5b81019080803573ffffffffffffffffffffffffffffffffffffffff169060200190929190505050611948565b6040518082815260200191505060405180910390f35b6104ac6004803603602081101561048057600080fd5b81019080803573ffffffffffffffffffffffffffffffffffffffff169060200190929190505050611991565b005b6104f0600480360360208110156104c457600080fd5b81019080803573ffffffffffffffffffffffffffffffffffffffff169060200190929190505050611b8f565b005b6104fa611d84565b604051808273ffffffffffffffffffffffffffffffffffffffff16815260200191505060405180910390f35b61052e611dae565b604051808273ffffffffffffffffffffffffffffffffffffffff16815260200191505060405180910390f35b6000609854905090565b609d6020528060005260406000206000915090505481565b610584611dd8565b73ffffffffffffffffffffffffffffffffffffffff166105a261191e565b73ffffffffffffffffffffffffffffffffffffffff161461062b576040517f08c379a00000000000000000000000000000000000000000000000000000000081526004018080602001828103825260208152602001807f4f776e61626c653a2063616c6c6572206973206e6f7420746865206f776e657281525060200191505060405180910390fd5b61063361109f565b1515811515141561064357610660565b801561065657610651611de0565b61065f565b61065e611ecc565b5b5b50565b600060019054906101000a900460ff16806106825750610681611fb7565b5b80610698575060008054906101000a900460ff16155b6106ed576040517f08c379a000000000000000000000000000000000000000000000000000000000815260040180806020018281038252602e8152602001806127f7602e913960400191505060405180910390fd5b60008060019054906101000a900460ff16159050801561073d576001600060016101000a81548160ff02191690831515021790555060016000806101000a81548160ff0219169083151502179055505b600073ffffffffffffffffffffffffffffffffffffffff168573ffffffffffffffffffffffffffffffffffffffff1614156107c3576040517f08c379a00000000000000000000000000000000000000000000000000000000081526004018080602001828103825260228152602001806127d56022913960400191505060405180910390fd5b600073ffffffffffffffffffffffffffffffffffffffff168473ffffffffffffffffffffffffffffffffffffffff161415610849576040517f08c379a000000000000000000000000000000000000000000000000000000000815260040180806020018281038252602181526020018061286b6021913960400191505060405180910390fd5b3073ffffffffffffffffffffffffffffffffffffffff168473ffffffffffffffffffffffffffffffffffffffff1614156108ce576040517f08c379a00000000000000000000000000000000000000000000000000000000081526004018080602001828103825260308152602001806127576030913960400191505060405180910390fd5b8151835114610928576040517f08c379a000000000000000000000000000000000000000000000000000000000815260040180806020018281038252603581526020018061288c6035913960400191505060405180910390fd5b60005b835181101561097f5782818151811061094057fe5b6020026020010151609d600086848151811061095857fe5b6020026020010151815260200190815260200160002081905550808060010191505061092b565b50610988611fc8565b6109906120d6565b84609760006101000a81548173ffffffffffffffffffffffffffffffffffffffff021916908373ffffffffffffffffffffffffffffffffffffffff16021790555083609a60006101000a81548173ffffffffffffffffffffffffffffffffffffffff021916908373ffffffffffffffffffffffffffffffffffffffff1602179055508015610a335760008060016101000a81548160ff0219169083151502179055505b5050505050565b80609c60003373ffffffffffffffffffffffffffffffffffffffff1673ffffffffffffffffffffffffffffffffffffffff1681526020019081526020016000208054905011610ad4576040517f08c379a00000000000000000000000000000000000000000000000000000000081526004018080602001828103825260228152602001806126e96022913960400191505060405180910390fd5b610adc6126c0565b609c60003373ffffffffffffffffffffffffffffffffffffffff1673ffffffffffffffffffffffffffffffffffffffff1681526020019081526020016000208281548110610b2657fe5b906000526020600020906004020160405180608001604052908160008201548152602001600182015481526020016002820154815260200160038201548152505090506000816000015111610bc6576040517f08c379a00000000000000000000000000000000000000000000000000000000081526004018080602001828103825260248152602001806127b16024913960400191505060405180910390fd5b610be1816020015182604001516121e490919063ffffffff16565b421015610c39576040517f08c379a00000000000000000000000000000000000000000000000000000000081526004018080602001828103825260228152602001806128256022913960400191505060405180910390fd5b609c60003373ffffffffffffffffffffffffffffffffffffffff1673ffffffffffffffffffffffffffffffffffffffff1681526020019081526020016000208281548110610c8357fe5b90600052602060002090600402016000808201600090556001820160009055600282016000905560038201600090555050610d0a8160000151609b60003373ffffffffffffffffffffffffffffffffffffffff1673ffffffffffffffffffffffffffffffffffffffff1681526020019081526020016000205461226c90919063ffffffff16565b609b60003373ffffffffffffffffffffffffffffffffffffffff1673ffffffffffffffffffffffffffffffffffffffff16815260200190815260200160002081905550610d66816000015160985461226c90919063ffffffff16565b609881905550610d85816060015160995461226c90919063ffffffff16565b609981905550609760009054906101000a900473ffffffffffffffffffffffffffffffffffffffff1673ffffffffffffffffffffffffffffffffffffffff1663a9059cbb3383600001516040518363ffffffff1660e01b8152600401808373ffffffffffffffffffffffffffffffffffffffff16815260200182815260200192505050602060405180830381600087803b158015610e2257600080fd5b505af1158015610e36573d6000803e3d6000fd5b505050506040513d6020811015610e4c57600080fd5b810190808051906020019092919050505050609760009054906101000a900473ffffffffffffffffffffffffffffffffffffffff1673ffffffffffffffffffffffffffffffffffffffff166323b872dd609a60009054906101000a900473ffffffffffffffffffffffffffffffffffffffff163384606001516040518463ffffffff1660e01b8152600401808473ffffffffffffffffffffffffffffffffffffffff1681526020018373ffffffffffffffffffffffffffffffffffffffff1681526020018281526020019350505050602060405180830381600087803b158015610f3557600080fd5b505af1158015610f49573d6000803e3d6000fd5b505050506040513d6020811015610f5f57600080fd5b81019080805190602001909291905050505080602001513373ffffffffffffffffffffffffffffffffffffffff167f204fccf0d92ed8d48f204adb39b2e81e92bad0dedb93f5716ca9478cfb57de00848460000151604051808381526020018281526020019250505060405180910390a35050565b610fdc611dd8565b73ffffffffffffffffffffffffffffffffffffffff16610ffa61191e565b73ffffffffffffffffffffffffffffffffffffffff1614611083576040517f08c379a00000000000000000000000000000000000000000000000000000000081526004018080602001828103825260208152602001807f4f776e61626c653a2063616c6c6572206973206e6f7420746865206f776e657281525060200191505060405180910390fd5b80609d6000848152602001908152602001600020819055505050565b6000606560009054906101000a900460ff16905090565b6110be611dd8565b73ffffffffffffffffffffffffffffffffffffffff166110dc61191e565b73ffffffffffffffffffffffffffffffffffffffff1614611165576040517f08c379a00000000000000000000000000000000000000000000000000000000081526004018080602001828103825260208152602001807f4f776e61626c653a2063616c6c6572206973206e6f7420746865206f776e657281525060200191505060405180910390fd5b600073ffffffffffffffffffffffffffffffffffffffff16603360009054906101000a900473ffffffffffffffffffffffffffffffffffffffff1673ffffffffffffffffffffffffffffffffffffffff167f8be0079c531659141344cd1fd0a4f28419497f9722a3daafe3b4186f6b6457e060405160405180910390a36000603360006101000a81548173ffffffffffffffffffffffffffffffffffffffff021916908373ffffffffffffffffffffffffffffffffffffffff160217905550565b61122e61109f565b156112a1576040517f08c379a00000000000000000000000000000000000000000000000000000000081526004018080602001828103825260108152602001807f5061757361626c653a207061757365640000000000000000000000000000000081525060200191505060405180910390fd5b600082116112fa576040517f08c379a00000000000000000000000000000000000000000000000000000000081526004018080602001828103825260248152602001806128476024913960400191505060405180910390fd5b81609760009054906101000a900473ffffffffffffffffffffffffffffffffffffffff1673ffffffffffffffffffffffffffffffffffffffff166370a08231336040518263ffffffff1660e01b8152600401808273ffffffffffffffffffffffffffffffffffffffff16815260200191505060206040518083038186803b15801561138457600080fd5b505afa158015611398573d6000803e3d6000fd5b505050506040513d60208110156113ae57600080fd5b81019080805190602001909291905050501015611416576040517f08c379a000000000000000000000000000000000000000000000000000000000815260040180806020018281038252602681526020018061270b6026913960400191505060405180910390fd5b6000609d6000838152602001908152602001600020541161149f576040517f08c379a00000000000000000000000000000000000000000000000000000000081526004018080602001828103825260158152602001807f7374616b653a496e76616c6964206c656e6774682e000000000000000000000081525060200191505060405180910390fd5b60006064609d6000848152602001908152602001600020548402816114c057fe5b0490506114d8816099546121e490919063ffffffff16565b609760009054906101000a900473ffffffffffffffffffffffffffffffffffffffff1673ffffffffffffffffffffffffffffffffffffffff166370a08231609a60009054906101000a900473ffffffffffffffffffffffffffffffffffffffff166040518263ffffffff1660e01b8152600401808273ffffffffffffffffffffffffffffffffffffffff16815260200191505060206040518083038186803b15801561158357600080fd5b505afa158015611597573d6000803e3d6000fd5b505050506040513d60208110156115ad57600080fd5b81019080805190602001909291905050501015611615576040517f08c379a000000000000000000000000000000000000000000000000000000000815260040180806020018281038252602a815260200180612787602a913960400191505060405180910390fd5b609c60003373ffffffffffffffffffffffffffffffffffffffff1673ffffffffffffffffffffffffffffffffffffffff168152602001908152602001600020604051806080016040528085815260200184815260200142815260200183815250908060018154018082558091505060019003906000526020600020906004020160009091909190915060008201518160000155602082015181600101556040820151816002015560608201518160030155505061171a83609b60003373ffffffffffffffffffffffffffffffffffffffff1673ffffffffffffffffffffffffffffffffffffffff168152602001908152602001600020546121e490919063ffffffff16565b609b60003373ffffffffffffffffffffffffffffffffffffffff1673ffffffffffffffffffffffffffffffffffffffff16815260200190815260200160002081905550611772836098546121e490919063ffffffff16565b60988190555061178d816099546121e490919063ffffffff16565b609981905550609760009054906101000a900473ffffffffffffffffffffffffffffffffffffffff1673ffffffffffffffffffffffffffffffffffffffff166323b872dd3330866040518463ffffffff1660e01b8152600401808473ffffffffffffffffffffffffffffffffffffffff1681526020018373ffffffffffffffffffffffffffffffffffffffff1681526020018281526020019350505050602060405180830381600087803b15801561184457600080fd5b505af1158015611858573d6000803e3d6000fd5b505050506040513d602081101561186e57600080fd5b810190808051906020019092919050505050813373ffffffffffffffffffffffffffffffffffffffff167fb4caaf29adda3eefee3ad552a8e85058589bf834c7466cae4ee58787f70589ed609c60003373ffffffffffffffffffffffffffffffffffffffff1673ffffffffffffffffffffffffffffffffffffffff1681526020019081526020016000208054905086604051808381526020018281526020019250505060405180910390a3505050565b6000603360009054906101000a900473ffffffffffffffffffffffffffffffffffffffff16905090565b6000609b60008373ffffffffffffffffffffffffffffffffffffffff1673ffffffffffffffffffffffffffffffffffffffff168152602001908152602001600020549050919050565b611999611dd8565b73ffffffffffffffffffffffffffffffffffffffff166119b761191e565b73ffffffffffffffffffffffffffffffffffffffff1614611a40576040517f08c379a00000000000000000000000000000000000000000000000000000000081526004018080602001828103825260208152602001807f4f776e61626c653a2063616c6c6572206973206e6f7420746865206f776e657281525060200191505060405180910390fd5b600073ffffffffffffffffffffffffffffffffffffffff168173ffffffffffffffffffffffffffffffffffffffff161415611ac6576040517f08c379a000000000000000000000000000000000000000000000000000000000815260040180806020018281038252602181526020018061286b6021913960400191505060405180910390fd5b3073ffffffffffffffffffffffffffffffffffffffff168173ffffffffffffffffffffffffffffffffffffffff161415611b4b576040517f08c379a00000000000000000000000000000000000000000000000000000000081526004018080602001828103825260308152602001806127576030913960400191505060405180910390fd5b80609a60006101000a81548173ffffffffffffffffffffffffffffffffffffffff021916908373ffffffffffffffffffffffffffffffffffffffff16021790555050565b611b97611dd8565b73ffffffffffffffffffffffffffffffffffffffff16611bb561191e565b73ffffffffffffffffffffffffffffffffffffffff1614611c3e576040517f08c379a00000000000000000000000000000000000000000000000000000000081526004018080602001828103825260208152602001807f4f776e61626c653a2063616c6c6572206973206e6f7420746865206f776e657281525060200191505060405180910390fd5b600073ffffffffffffffffffffffffffffffffffffffff168173ffffffffffffffffffffffffffffffffffffffff161415611cc4576040517f08c379a00000000000000000000000000000000000000000000000000000000081526004018080602001828103825260268152602001806127316026913960400191505060405180910390fd5b8073ffffffffffffffffffffffffffffffffffffffff16603360009054906101000a900473ffffffffffffffffffffffffffffffffffffffff1673ffffffffffffffffffffffffffffffffffffffff167f8be0079c531659141344cd1fd0a4f28419497f9722a3daafe3b4186f6b6457e060405160405180910390a380603360006101000a81548173ffffffffffffffffffffffffffffffffffffffff021916908373ffffffffffffffffffffffffffffffffffffffff16021790555050565b6000609a60009054906101000a900473ffffffffffffffffffffffffffffffffffffffff16905090565b6000609760009054906101000a900473ffffffffffffffffffffffffffffffffffffffff16905090565b600033905090565b611de861109f565b15611e5b576040517f08c379a00000000000000000000000000000000000000000000000000000000081526004018080602001828103825260108152602001807f5061757361626c653a207061757365640000000000000000000000000000000081525060200191505060405180910390fd5b6001606560006101000a81548160ff0219169083151502179055507f62e78cea01bee320cd4e420270b5ea74000d11b0c9f74754ebdbfc544b05a258611e9f611dd8565b604051808273ffffffffffffffffffffffffffffffffffffffff16815260200191505060405180910390a1565b611ed461109f565b611f46576040517f08c379a00000000000000000000000000000000000000000000000000000000081526004018080602001828103825260148152602001807f5061757361626c653a206e6f742070617573656400000000000000000000000081525060200191505060405180910390fd5b6000606560006101000a81548160ff0219169083151502179055507f5db9ee0a495bf2e6ff9c91a7834c1ba4fdd244a5e8aa4e537bd38aeae4b073aa611f8a611dd8565b604051808273ffffffffffffffffffffffffffffffffffffffff16815260200191505060405180910390a1565b6000611fc2306122ef565b15905090565b600060019054906101000a900460ff1680611fe75750611fe6611fb7565b5b80611ffd575060008054906101000a900460ff16155b612052576040517f08c379a000000000000000000000000000000000000000000000000000000000815260040180806020018281038252602e8152602001806127f7602e913960400191505060405180910390fd5b60008060019054906101000a900460ff1615905080156120a2576001600060016101000a81548160ff02191690831515021790555060016000806101000a81548160ff0219169083151502179055505b6120aa612302565b6120b2612400565b80156120d35760008060016101000a81548160ff0219169083151502179055505b50565b600060019054906101000a900460ff16806120f557506120f4611fb7565b5b8061210b575060008054906101000a900460ff16155b612160576040517f08c379a000000000000000000000000000000000000000000000000000000000815260040180806020018281038252602e8152602001806127f7602e913960400191505060405180910390fd5b60008060019054906101000a900460ff1615905080156121b0576001600060016101000a81548160ff02191690831515021790555060016000806101000a81548160ff0219169083151502179055505b6121b8612302565b6121c06125a7565b80156121e15760008060016101000a81548160ff0219169083151502179055505b50565b600080828401905083811015612262576040517f08c379a000000000000000000000000000000000000000000000000000000000815260040180806020018281038252601b8152602001807f536166654d6174683a206164646974696f6e206f766572666c6f77000000000081525060200191505060405180910390fd5b8091505092915050565b6000828211156122e4576040517f08c379a000000000000000000000000000000000000000000000000000000000815260040180806020018281038252601e8152602001807f536166654d6174683a207375627472616374696f6e206f766572666c6f77000081525060200191505060405180910390fd5b818303905092915050565b600080823b905060008111915050919050565b600060019054906101000a900460ff16806123215750612320611fb7565b5b80612337575060008054906101000a900460ff16155b61238c576040517f08c379a000000000000000000000000000000000000000000000000000000000815260040180806020018281038252602e8152602001806127f7602e913960400191505060405180910390fd5b60008060019054906101000a900460ff1615905080156123dc576001600060016101000a81548160ff02191690831515021790555060016000806101000a81548160ff0219169083151502179055505b80156123fd5760008060016101000a81548160ff0219169083151502179055505b50565b600060019054906101000a900460ff168061241f575061241e611fb7565b5b80612435575060008054906101000a900460ff16155b61248a576040517f08c379a000000000000000000000000000000000000000000000000000000000815260040180806020018281038252602e8152602001806127f7602e913960400191505060405180910390fd5b60008060019054906101000a900460ff1615905080156124da576001600060016101000a81548160ff02191690831515021790555060016000806101000a81548160ff0219169083151502179055505b60006124e4611dd8565b905080603360006101000a81548173ffffffffffffffffffffffffffffffffffffffff021916908373ffffffffffffffffffffffffffffffffffffffff1602179055508073ffffffffffffffffffffffffffffffffffffffff16600073ffffffffffffffffffffffffffffffffffffffff167f8be0079c531659141344cd1fd0a4f28419497f9722a3daafe3b4186f6b6457e060405160405180910390a35080156125a45760008060016101000a81548160ff0219169083151502179055505b50565b600060019054906101000a900460ff16806125c657506125c5611fb7565b5b806125dc575060008054906101000a900460ff16155b612631576040517f08c379a000000000000000000000000000000000000000000000000000000000815260040180806020018281038252602e8152602001806127f7602e913960400191505060405180910390fd5b60008060019054906101000a900460ff161590508015612681576001600060016101000a81548160ff02191690831515021790555060016000806101000a81548160ff0219169083151502179055505b6000606560006101000a81548160ff02191690831515021790555080156126bd5760008060016101000a81548160ff0219169083151502179055505b50565b604051806080016040528060008152602001600081526020016000815260200160008152509056fe756e7374616b653a5374616b6520696e646578206f7574206f6620626f756e64732e7374616b653a5573657220646f6573206e6f74206861766520656e6f75676820746f6b656e2e4f776e61626c653a206e6577206f776e657220697320746865207a65726f2061646472657373696e697469616c697a65723a706f6f6c416464726573732063616e74206265207374616b696e6720636f6e74726163747374616b653a506f6f6c20646f6573206e6f74206861766520656e6f756768206c69717569646974792e756e7374616b653a5374616b652077617320616c72656164792077697468647261776e2e696e697469616c697a65723a746f6b656e416464726573732063616e742062652030496e697469616c697a61626c653a20636f6e747261637420697320616c726561647920696e697469616c697a6564756e7374616b653a5374616b6520686173206e6f742065787069726564207965742e7374616b653a4d757374207374616b65206d6f7265207468616e203020746f6b656e732e696e697469616c697a65723a706f6f6c416464726573732063616e742062652030696e697469616c697a65723a6475726174696f6e206c656e6774682073686f756c6420657175616c207261746573206c656e677468a26469706673582212203e1e513cdd867b78b32b65376e50c2fe15556f6519d9cdb2b4ba175973c0194964736f6c63430007030033",
  "linkReferences": {},
  "deployedLinkReferences": {}
}