{
  "_format": "hh-sol-artifact-1",
  "contractName": "SuperRareTokenMerkleDrop",
  "sourceName": "contracts/claim/SuperRareTokenMerkleDrop.sol",
  "abi": [
    {
      "inputs": [
        {
          "internalType": "address",
          "name": "superRareToken",
          "type": "address"
        },
        {
          "internalType": "bytes32",
          "name": "merkleRoot",
          "type": "bytes32"
        }
      ],
      "stateMutability": "nonpayable",
      "type": "constructor"
    },
    {
      "anonymous": false,
      "inputs": [
        {
          "indexed": true,
          "internalType": "bytes32",
          "name": "root",
          "type": "bytes32"
        },
        {
          "indexed": true,
          "internalType": "address",
          "name": "addr",
          "type": "address"
        },
        {
          "indexed": false,
          "internalType": "uint256",
          "name": "amt",
          "type": "uint256"
        }
      ],
      "name": "TokensClaimed",
      "type": "event"
    },
    {
      "inputs": [
        {
          "internalType": "uint256",
          "name": "amount",
          "type": "uint256"
        },
        {
          "internalType": "bytes32[]",
          "name": "proof",
          "type": "bytes32[]"
        }
      ],
      "name": "claim",
      "outputs": [],
      "stateMutability": "nonpayable",
      "type": "function"
    },
    {
      "inputs": [],
      "name": "claimRoot",
      "outputs": [
        {
          "internalType": "bytes32",
          "name": "",
          "type": "bytes32"
        }
      ],
      "stateMutability": "view",
      "type": "function"
    },
    {
      "inputs": [
        {
          "internalType": "address",
          "name": "",
          "type": "address"
        }
      ],
      "name": "rewardClaimed",
      "outputs": [
        {
          "internalType": "bool",
          "name": "",
          "type": "bool"
        }
      ],
      "stateMutability": "view",
      "type": "function"
    },
    {
      "inputs": [],
      "name": "token",
      "outputs": [
        {
          "internalType": "contract IERC20Upgradeable",
          "name": "",
          "type": "address"
        }
      ],
      "stateMutability": "view",
      "type": "function"
    },
    {
      "inputs": [
        {
          "internalType": "bytes32",
          "name": "newRoot",
          "type": "bytes32"
        }
      ],
      "name": "updateMerkleRoot",
      "outputs": [],
      "stateMutability": "nonpayable",
      "type": "function"
    },
    {
      "inputs": [
        {
          "internalType": "address",
          "name": "_token",
          "type": "address"
        }
      ],
      "name": "updateTokenAddress",
      "outputs": [],
      "stateMutability": "nonpayable",
      "type": "function"
    },
    {
      "inputs": [
        {
          "internalType": "address",
          "name": "recipient",
          "type": "address"
        },
        {
          "internalType": "uint256",
          "name": "value",
          "type": "uint256"
        },
        {
          "internalType": "bytes32[]",
          "name": "proof",
          "type": "bytes32[]"
        }
      ],
      "name": "verifyEntitled",
      "outputs": [
        {
          "internalType": "bool",
          "name": "",
          "type": "bool"
        }
      ],
      "stateMutability": "view",
      "type": "function"
    }
  ],
  "bytecode": "0x608060405234801561001057600080fd5b50604051610c01380380610c018339818101604052604081101561003357600080fd5b810190808051906020019092919080519060200190929190505050600073ffffffffffffffffffffffffffffffffffffffff168273ffffffffffffffffffffffffffffffffffffffff1614156100f1576040517f08c379a00000000000000000000000000000000000000000000000000000000081526004018080602001828103825260208152602001807f546f6b656e20616464726573732063616e74206265203020616464726573732e81525060200191505060405180910390fd5b6000801b81141561016a576040517f08c379a00000000000000000000000000000000000000000000000000000000081526004018080602001828103825260198152602001807f4d65726b6c65526f6f742063616e7420626520656d7074792e0000000000000081525060200191505060405180910390fd5b61017861020760201b60201c565b603360006101000a81548173ffffffffffffffffffffffffffffffffffffffff021916908373ffffffffffffffffffffffffffffffffffffffff16021790555081603560006101000a81548173ffffffffffffffffffffffffffffffffffffffff021916908373ffffffffffffffffffffffffffffffffffffffff16021790555080603481905550505061020f565b600033905090565b6109e38061021e6000396000f3fe608060405234801561001057600080fd5b506004361061007d5760003560e01c80634783f0ef1161005b5780634783f0ef1461017d5780636691461a146101ab578063c3709caf146101ef578063fc0c546a146102e75761007d565b806314ea35e71461008257806329e19704146100a05780632f52ebb7146100fa575b600080fd5b61008a61031b565b6040518082815260200191505060405180910390f35b6100e2600480360360208110156100b657600080fd5b81019080803573ffffffffffffffffffffffffffffffffffffffff169060200190929190505050610321565b60405180821515815260200191505060405180910390f35b61017b6004803603604081101561011057600080fd5b81019080803590602001909291908035906020019064010000000081111561013757600080fd5b82018360208201111561014957600080fd5b8035906020019184602083028401116401000000008311171561016b57600080fd5b9091929391929390505050610341565b005b6101a96004803603602081101561019357600080fd5b810190808035906020019092919050505061064a565b005b6101ed600480360360208110156101c157600080fd5b81019080803573ffffffffffffffffffffffffffffffffffffffff16906020019092919050505061071e565b005b6102cf6004803603606081101561020557600080fd5b81019080803573ffffffffffffffffffffffffffffffffffffffff169060200190929190803590602001909291908035906020019064010000000081111561024c57600080fd5b82018360208201111561025e57600080fd5b8035906020019184602083028401116401000000008311171561028057600080fd5b919080806020026020016040519081016040528093929190818152602001838360200280828437600081840152601f19601f82011690508083019250505050505050919291929050505061082c565b60405180821515815260200191505060405180910390f35b6102ef61088d565b604051808273ffffffffffffffffffffffffffffffffffffffff16815260200191505060405180910390f35b60345481565b60366020528060005260406000206000915054906101000a900460ff1681565b61039461034c6108b3565b84848480806020026020016040519081016040528093929190818152602001838360200280828437600081840152601f19601f8201169050808301925050505050505061082c565b610406576040517f08c379a00000000000000000000000000000000000000000000000000000000081526004018080602001828103825260208152602001807f5468652070726f6f6620636f756c64206e6f742062652076657269666965642e81525060200191505060405180910390fd5b603660006104126108b3565b73ffffffffffffffffffffffffffffffffffffffff1673ffffffffffffffffffffffffffffffffffffffff16815260200190815260200160002060009054906101000a900460ff16156104b0576040517f08c379a000000000000000000000000000000000000000000000000000000000815260040180806020018281038252602f81526020018061097f602f913960400191505060405180910390fd5b6001603660006104be6108b3565b73ffffffffffffffffffffffffffffffffffffffff1673ffffffffffffffffffffffffffffffffffffffff16815260200190815260200160002060006101000a81548160ff021916908315150217905550603560009054906101000a900473ffffffffffffffffffffffffffffffffffffffff1673ffffffffffffffffffffffffffffffffffffffff1663a9059cbb6105556108b3565b856040518363ffffffff1660e01b8152600401808373ffffffffffffffffffffffffffffffffffffffff16815260200182815260200192505050602060405180830381600087803b1580156105a957600080fd5b505af11580156105bd573d6000803e3d6000fd5b505050506040513d60208110156105d357600080fd5b81019080805190602001909291905050506105ed57600080fd5b6105f56108b3565b73ffffffffffffffffffffffffffffffffffffffff166034547fb6a3782a350d2b8520b7fe13e8e97b61f22902243ad29c4c3a9a8f714935718c856040518082815260200191505060405180910390a3505050565b603360009054906101000a900473ffffffffffffffffffffffffffffffffffffffff1673ffffffffffffffffffffffffffffffffffffffff1661068b6108b3565b73ffffffffffffffffffffffffffffffffffffffff1614610714576040517f08c379a000000000000000000000000000000000000000000000000000000000815260040180806020018281038252601e8152602001807f4d757374206265206f776e6572206f662074686520636f6e74726163742e000081525060200191505060405180910390fd5b8060348190555050565b603360009054906101000a900473ffffffffffffffffffffffffffffffffffffffff1673ffffffffffffffffffffffffffffffffffffffff1661075f6108b3565b73ffffffffffffffffffffffffffffffffffffffff16146107e8576040517f08c379a000000000000000000000000000000000000000000000000000000000815260040180806020018281038252601e8152602001807f4d757374206265206f776e6572206f662074686520636f6e74726163742e000081525060200191505060405180910390fd5b80603560006101000a81548173ffffffffffffffffffffffffffffffffffffffff021916908373ffffffffffffffffffffffffffffffffffffffff16021790555050565b6000808484604051602001808373ffffffffffffffffffffffffffffffffffffffff1660601b81526014018281526020019250505060405160208183030381529060405280519060200120905061088381846108bb565b9150509392505050565b603560009054906101000a900473ffffffffffffffffffffffffffffffffffffffff1681565b600033905090565b60008083905060005b83518110156108f9576108ea828583815181106108dd57fe5b6020026020010151610908565b915080806001019150506108c4565b50603454811491505092915050565b600081831115610946578183604051602001808381526020018281526020019250505060405160208183030381529060405280519060200120610976565b82826040516020018083815260200182815260200192505050604051602081830303815290604052805190602001205b90509291505056fe596f75206861766520616c72656164792077697468647261776e20796f757220656e7469746c656420746f6b656e2ea2646970667358221220201b85741df53bf35d230ebad007f5eb97a6a0b467de3180704bc0522c11553c64736f6c63430007030033",
  "linkReferences": {},
  "deployedLinkReferences": {}
}