{
  "_format": "hh-sol-artifact-1",
  "contractName": "SuperRareTokenMerkleDrop",
  "sourceName": "contracts/claim/SuperRareTokenMerkleDrop.sol",
  "abi": [
    {
      "inputs": [
        {
          "internalType": "address",
          "name": "superRareToken",
          "type": "address"
        },
        {
          "internalType": "bytes32",
          "name": "merkleRoot",
          "type": "bytes32"
        }
      ],
      "stateMutability": "nonpayable",
      "type": "constructor"
    },
    {
      "anonymous": false,
      "inputs": [
        {
          "indexed": false,
          "internalType": "address",
          "name": "addr",
          "type": "address"
        },
        {
          "indexed": false,
          "internalType": "uint256",
          "name": "amt",
          "type": "uint256"
        }
      ],
      "name": "TokensClaimed",
      "type": "event"
    },
    {
      "inputs": [
        {
          "internalType": "uint256",
          "name": "amount",
          "type": "uint256"
        },
        {
          "internalType": "bytes32[]",
          "name": "proof",
          "type": "bytes32[]"
        }
      ],
      "name": "claim",
      "outputs": [],
      "stateMutability": "nonpayable",
      "type": "function"
    },
    {
      "inputs": [],
      "name": "claimRoot",
      "outputs": [
        {
          "internalType": "bytes32",
          "name": "",
          "type": "bytes32"
        }
      ],
      "stateMutability": "view",
      "type": "function"
    },
    {
      "inputs": [
        {
          "internalType": "address",
          "name": "",
          "type": "address"
        }
      ],
      "name": "rewardClaimed",
      "outputs": [
        {
          "internalType": "bool",
          "name": "",
          "type": "bool"
        }
      ],
      "stateMutability": "view",
      "type": "function"
    },
    {
      "inputs": [
        {
          "internalType": "bytes32",
          "name": "newRoot",
          "type": "bytes32"
        }
      ],
      "name": "updateMerkleRoot",
      "outputs": [],
      "stateMutability": "nonpayable",
      "type": "function"
    },
    {
      "inputs": [
        {
          "internalType": "address",
          "name": "recipient",
          "type": "address"
        },
        {
          "internalType": "uint256",
          "name": "value",
          "type": "uint256"
        },
        {
          "internalType": "bytes32[]",
          "name": "proof",
          "type": "bytes32[]"
        }
      ],
      "name": "verifyEntitled",
      "outputs": [
        {
          "internalType": "bool",
          "name": "",
          "type": "bool"
        }
      ],
      "stateMutability": "view",
      "type": "function"
    }
  ],
  "bytecode": "0x608060405234801561001057600080fd5b50604051610a2d380380610a2d8339818101604052604081101561003357600080fd5b810190808051906020019092919080519060200190929190505050600073ffffffffffffffffffffffffffffffffffffffff168273ffffffffffffffffffffffffffffffffffffffff1614156100f1576040517f08c379a00000000000000000000000000000000000000000000000000000000081526004018080602001828103825260208152602001807f546f6b656e20616464726573732063616e74206265203020616464726573732e81525060200191505060405180910390fd5b6000801b81141561016a576040517f08c379a00000000000000000000000000000000000000000000000000000000081526004018080602001828103825260198152602001807f4d65726b6c65526f6f742063616e7420626520656d7074792e0000000000000081525060200191505060405180910390fd5b61017861020760201b60201c565b603360006101000a81548173ffffffffffffffffffffffffffffffffffffffff021916908373ffffffffffffffffffffffffffffffffffffffff16021790555081603560006101000a81548173ffffffffffffffffffffffffffffffffffffffff021916908373ffffffffffffffffffffffffffffffffffffffff16021790555080603481905550505061020f565b600033905090565b61080f8061021e6000396000f3fe608060405234801561001057600080fd5b50600436106100575760003560e01c806314ea35e71461005c57806329e197041461007a5780632f52ebb7146100d45780634783f0ef14610196578063c3709caf146101c4575b600080fd5b6100646102bc565b6040518082815260200191505060405180910390f35b6100bc6004803603602081101561009057600080fd5b81019080803573ffffffffffffffffffffffffffffffffffffffff1690602001909291905050506102c2565b60405180821515815260200191505060405180910390f35b610194600480360360408110156100ea57600080fd5b81019080803590602001909291908035906020019064010000000081111561011157600080fd5b82018360208201111561012357600080fd5b8035906020019184602083028401116401000000008311171561014557600080fd5b919080806020026020016040519081016040528093929190818152602001838360200280828437600081840152601f19601f8201169050808301925050505050505091929192905050506102e2565b005b6101c2600480360360208110156101ac57600080fd5b81019080803590602001909291905050506105ad565b005b6102a4600480360360608110156101da57600080fd5b81019080803573ffffffffffffffffffffffffffffffffffffffff169060200190929190803590602001909291908035906020019064010000000081111561022157600080fd5b82018360208201111561023357600080fd5b8035906020019184602083028401116401000000008311171561025557600080fd5b919080806020026020016040519081016040528093929190818152602001838360200280828437600081840152601f19601f820116905080830192505050505050509192919290505050610681565b60405180821515815260200191505060405180910390f35b60345481565b60366020528060005260406000206000915054906101000a900460ff1681565b6102f46102ed6106e2565b8383610681565b610366576040517f08c379a00000000000000000000000000000000000000000000000000000000081526004018080602001828103825260208152602001807f5468652070726f6f6620636f756c64206e6f742062652076657269666965642e81525060200191505060405180910390fd5b603660006103726106e2565b73ffffffffffffffffffffffffffffffffffffffff1673ffffffffffffffffffffffffffffffffffffffff16815260200190815260200160002060009054906101000a900460ff1615610410576040517f08c379a000000000000000000000000000000000000000000000000000000000815260040180806020018281038252602f8152602001806107ab602f913960400191505060405180910390fd5b60016036600061041e6106e2565b73ffffffffffffffffffffffffffffffffffffffff1673ffffffffffffffffffffffffffffffffffffffff16815260200190815260200160002060006101000a81548160ff021916908315150217905550603560009054906101000a900473ffffffffffffffffffffffffffffffffffffffff1673ffffffffffffffffffffffffffffffffffffffff1663a9059cbb6104b56106e2565b846040518363ffffffff1660e01b8152600401808373ffffffffffffffffffffffffffffffffffffffff16815260200182815260200192505050602060405180830381600087803b15801561050957600080fd5b505af115801561051d573d6000803e3d6000fd5b505050506040513d602081101561053357600080fd5b810190808051906020019092919050505061054d57600080fd5b7f896e034966eaaf1adc54acc0f257056febbd300c9e47182cf761982cf1f5e4306105766106e2565b83604051808373ffffffffffffffffffffffffffffffffffffffff1681526020018281526020019250505060405180910390a15050565b603360009054906101000a900473ffffffffffffffffffffffffffffffffffffffff1673ffffffffffffffffffffffffffffffffffffffff166105ee6106e2565b73ffffffffffffffffffffffffffffffffffffffff1614610677576040517f08c379a000000000000000000000000000000000000000000000000000000000815260040180806020018281038252601e8152602001807f4d757374206265206f776e6572206f662074686520636f6e74726163742e000081525060200191505060405180910390fd5b8060348190555050565b6000808484604051602001808373ffffffffffffffffffffffffffffffffffffffff1660601b8152601401828152602001925050506040516020818303038152906040528051906020012090506106d881846106ea565b9150509392505050565b600033905090565b60008083905060005b8351811015610726576107198285838151811061070c57fe5b6020026020010151610735565b91506001810190506106f3565b50603454811491505092915050565b60008183106107725781836040516020018083815260200182815260200192505050604051602081830303815290604052805190602001206107a2565b82826040516020018083815260200182815260200192505050604051602081830303815290604052805190602001205b90509291505056fe596f75206861766520616c72656164792077697468647261776e20796f757220656e7469746c656420746f6b656e2ea2646970667358221220c80ecbbc7529e0c6ae5010d26de2105980942e4df355f36f67badf7db04c6f0664736f6c63430007030033",
  "linkReferences": {},
  "deployedLinkReferences": {}
}